{
  "_format": "hh-sol-artifact-1",
  "contractName": "MyToken",
  "sourceName": "contracts/MyToken.sol",
  "abi": [
    {
      "inputs": [
        {
          "internalType": "address",
          "name": "minter",
          "type": "address"
        },
        {
          "internalType": "address",
          "name": "burner",
          "type": "address"
        }
      ],
      "stateMutability": "nonpayable",
      "type": "constructor"
    },
    {
      "anonymous": false,
      "inputs": [
        {
          "indexed": true,
          "internalType": "address",
          "name": "owner",
          "type": "address"
        },
        {
          "indexed": true,
          "internalType": "address",
          "name": "spender",
          "type": "address"
        },
        {
          "indexed": false,
          "internalType": "uint256",
          "name": "value",
          "type": "uint256"
        }
      ],
      "name": "Approval",
      "type": "event"
    },
    {
      "anonymous": false,
      "inputs": [
        {
          "indexed": true,
          "internalType": "bytes32",
          "name": "role",
          "type": "bytes32"
        },
        {
          "indexed": true,
          "internalType": "bytes32",
          "name": "previousAdminRole",
          "type": "bytes32"
        },
        {
          "indexed": true,
          "internalType": "bytes32",
          "name": "newAdminRole",
          "type": "bytes32"
        }
      ],
      "name": "RoleAdminChanged",
      "type": "event"
    },
    {
      "anonymous": false,
      "inputs": [
        {
          "indexed": true,
          "internalType": "bytes32",
          "name": "role",
          "type": "bytes32"
        },
        {
          "indexed": true,
          "internalType": "address",
          "name": "account",
          "type": "address"
        },
        {
          "indexed": true,
          "internalType": "address",
          "name": "sender",
          "type": "address"
        }
      ],
      "name": "RoleGranted",
      "type": "event"
    },
    {
      "anonymous": false,
      "inputs": [
        {
          "indexed": true,
          "internalType": "bytes32",
          "name": "role",
          "type": "bytes32"
        },
        {
          "indexed": true,
          "internalType": "address",
          "name": "account",
          "type": "address"
        },
        {
          "indexed": true,
          "internalType": "address",
          "name": "sender",
          "type": "address"
        }
      ],
      "name": "RoleRevoked",
      "type": "event"
    },
    {
      "anonymous": false,
      "inputs": [
        {
          "indexed": true,
          "internalType": "address",
          "name": "from",
          "type": "address"
        },
        {
          "indexed": true,
          "internalType": "address",
          "name": "to",
          "type": "address"
        },
        {
          "indexed": false,
          "internalType": "uint256",
          "name": "value",
          "type": "uint256"
        }
      ],
      "name": "Transfer",
      "type": "event"
    },
    {
      "inputs": [],
      "name": "BURNER_ROLE",
      "outputs": [
        {
          "internalType": "bytes32",
          "name": "",
          "type": "bytes32"
        }
      ],
      "stateMutability": "view",
      "type": "function"
    },
    {
      "inputs": [],
      "name": "DEFAULT_ADMIN_ROLE",
      "outputs": [
        {
          "internalType": "bytes32",
          "name": "",
          "type": "bytes32"
        }
      ],
      "stateMutability": "view",
      "type": "function"
    },
    {
      "inputs": [],
      "name": "MINTER_ROLE",
      "outputs": [
        {
          "internalType": "bytes32",
          "name": "",
          "type": "bytes32"
        }
      ],
      "stateMutability": "view",
      "type": "function"
    },
    {
      "inputs": [
        {
          "internalType": "address",
          "name": "owner",
          "type": "address"
        },
        {
          "internalType": "address",
          "name": "spender",
          "type": "address"
        }
      ],
      "name": "allowance",
      "outputs": [
        {
          "internalType": "uint256",
          "name": "",
          "type": "uint256"
        }
      ],
      "stateMutability": "view",
      "type": "function"
    },
    {
      "inputs": [
        {
          "internalType": "address",
          "name": "spender",
          "type": "address"
        },
        {
          "internalType": "uint256",
          "name": "amount",
          "type": "uint256"
        }
      ],
      "name": "approve",
      "outputs": [
        {
          "internalType": "bool",
          "name": "",
          "type": "bool"
        }
      ],
      "stateMutability": "nonpayable",
      "type": "function"
    },
    {
      "inputs": [
        {
          "internalType": "address",
          "name": "account",
          "type": "address"
        }
      ],
      "name": "balanceOf",
      "outputs": [
        {
          "internalType": "uint256",
          "name": "",
          "type": "uint256"
        }
      ],
      "stateMutability": "view",
      "type": "function"
    },
    {
      "inputs": [
        {
          "internalType": "address",
          "name": "from",
          "type": "address"
        },
        {
          "internalType": "uint256",
          "name": "amount",
          "type": "uint256"
        }
      ],
      "name": "burn",
      "outputs": [],
      "stateMutability": "nonpayable",
      "type": "function"
    },
    {
      "inputs": [],
      "name": "decimals",
      "outputs": [
        {
          "internalType": "uint8",
          "name": "",
          "type": "uint8"
        }
      ],
      "stateMutability": "view",
      "type": "function"
    },
    {
      "inputs": [
        {
          "internalType": "address",
          "name": "spender",
          "type": "address"
        },
        {
          "internalType": "uint256",
          "name": "subtractedValue",
          "type": "uint256"
        }
      ],
      "name": "decreaseAllowance",
      "outputs": [
        {
          "internalType": "bool",
          "name": "",
          "type": "bool"
        }
      ],
      "stateMutability": "nonpayable",
      "type": "function"
    },
    {
      "inputs": [
        {
          "internalType": "bytes32",
          "name": "role",
          "type": "bytes32"
        }
      ],
      "name": "getRoleAdmin",
      "outputs": [
        {
          "internalType": "bytes32",
          "name": "",
          "type": "bytes32"
        }
      ],
      "stateMutability": "view",
      "type": "function"
    },
    {
      "inputs": [
        {
          "internalType": "bytes32",
          "name": "role",
          "type": "bytes32"
        },
        {
          "internalType": "address",
          "name": "account",
          "type": "address"
        }
      ],
      "name": "grantRole",
      "outputs": [],
      "stateMutability": "nonpayable",
      "type": "function"
    },
    {
      "inputs": [
        {
          "internalType": "bytes32",
          "name": "role",
          "type": "bytes32"
        },
        {
          "internalType": "address",
          "name": "account",
          "type": "address"
        }
      ],
      "name": "hasRole",
      "outputs": [
        {
          "internalType": "bool",
          "name": "",
          "type": "bool"
        }
      ],
      "stateMutability": "view",
      "type": "function"
    },
    {
      "inputs": [
        {
          "internalType": "address",
          "name": "spender",
          "type": "address"
        },
        {
          "internalType": "uint256",
          "name": "addedValue",
          "type": "uint256"
        }
      ],
      "name": "increaseAllowance",
      "outputs": [
        {
          "internalType": "bool",
          "name": "",
          "type": "bool"
        }
      ],
      "stateMutability": "nonpayable",
      "type": "function"
    },
    {
      "inputs": [
        {
          "internalType": "address",
          "name": "to",
          "type": "address"
        },
        {
          "internalType": "uint256",
          "name": "amount",
          "type": "uint256"
        }
      ],
      "name": "mint",
      "outputs": [],
      "stateMutability": "nonpayable",
      "type": "function"
    },
    {
      "inputs": [],
      "name": "name",
      "outputs": [
        {
          "internalType": "string",
          "name": "",
          "type": "string"
        }
      ],
      "stateMutability": "view",
      "type": "function"
    },
    {
      "inputs": [
        {
          "internalType": "bytes32",
          "name": "role",
          "type": "bytes32"
        },
        {
          "internalType": "address",
          "name": "account",
          "type": "address"
        }
      ],
      "name": "renounceRole",
      "outputs": [],
      "stateMutability": "nonpayable",
      "type": "function"
    },
    {
      "inputs": [
        {
          "internalType": "bytes32",
          "name": "role",
          "type": "bytes32"
        },
        {
          "internalType": "address",
          "name": "account",
          "type": "address"
        }
      ],
      "name": "revokeRole",
      "outputs": [],
      "stateMutability": "nonpayable",
      "type": "function"
    },
    {
      "inputs": [
        {
          "internalType": "bytes4",
          "name": "interfaceId",
          "type": "bytes4"
        }
      ],
      "name": "supportsInterface",
      "outputs": [
        {
          "internalType": "bool",
          "name": "",
          "type": "bool"
        }
      ],
      "stateMutability": "view",
      "type": "function"
    },
    {
      "inputs": [],
      "name": "symbol",
      "outputs": [
        {
          "internalType": "string",
          "name": "",
          "type": "string"
        }
      ],
      "stateMutability": "view",
      "type": "function"
    },
    {
      "inputs": [],
      "name": "totalSupply",
      "outputs": [
        {
          "internalType": "uint256",
          "name": "",
          "type": "uint256"
        }
      ],
      "stateMutability": "view",
      "type": "function"
    },
    {
      "inputs": [
        {
          "internalType": "address",
          "name": "to",
          "type": "address"
        },
        {
          "internalType": "uint256",
          "name": "amount",
          "type": "uint256"
        }
      ],
      "name": "transfer",
      "outputs": [
        {
          "internalType": "bool",
          "name": "",
          "type": "bool"
        }
      ],
      "stateMutability": "nonpayable",
      "type": "function"
    },
    {
      "inputs": [
        {
          "internalType": "address",
          "name": "from",
          "type": "address"
        },
        {
          "internalType": "address",
          "name": "to",
          "type": "address"
        },
        {
          "internalType": "uint256",
          "name": "amount",
          "type": "uint256"
        }
      ],
      "name": "transferFrom",
      "outputs": [
        {
          "internalType": "bool",
          "name": "",
          "type": "bool"
        }
      ],
      "stateMutability": "nonpayable",
      "type": "function"
    }
  ],
  "bytecode": "0x60806040523480156200001157600080fd5b5060405162002add38038062002add8339818101604052810190620000379190620003d8565b6040518060400160405280600781526020017f4d79546f6b656e000000000000000000000000000000000000000000000000008152506040518060400160405280600381526020017f544b4e00000000000000000000000000000000000000000000000000000000008152508160039080519060200190620000bb929190620002be565b508060049080519060200190620000d4929190620002be565b505050620001097f9f2df0fed2c77648de5860a4cc508cd0818c85b8b8a1ab4ceeef8d981c8956a6836200014360201b60201c565b6200013b7f3c11d16cbaffd01df69ce1c404f6340ee057498f5f00246190ea54220576a848826200014360201b60201c565b505062000484565b6200015582826200015960201b60201c565b5050565b6200016b82826200024b60201b60201c565b620002475760016005600084815260200190815260200160002060000160008373ffffffffffffffffffffffffffffffffffffffff1673ffffffffffffffffffffffffffffffffffffffff16815260200190815260200160002060006101000a81548160ff021916908315150217905550620001ec620002b660201b60201c565b73ffffffffffffffffffffffffffffffffffffffff168173ffffffffffffffffffffffffffffffffffffffff16837f2f8788117e7eff1d82e926ec794901d17c78024a50270940304540a733656f0d60405160405180910390a45b5050565b60006005600084815260200190815260200160002060000160008373ffffffffffffffffffffffffffffffffffffffff1673ffffffffffffffffffffffffffffffffffffffff16815260200190815260200160002060009054906101000a900460ff16905092915050565b600033905090565b828054620002cc906200044e565b90600052602060002090601f016020900481019282620002f057600085556200033c565b82601f106200030b57805160ff19168380011785556200033c565b828001600101855582156200033c579182015b828111156200033b5782518255916020019190600101906200031e565b5b5090506200034b91906200034f565b5090565b5b808211156200036a57600081600090555060010162000350565b5090565b600080fd5b600073ffffffffffffffffffffffffffffffffffffffff82169050919050565b6000620003a08262000373565b9050919050565b620003b28162000393565b8114620003be57600080fd5b50565b600081519050620003d281620003a7565b92915050565b60008060408385031215620003f257620003f16200036e565b5b60006200040285828601620003c1565b92505060206200041585828601620003c1565b9150509250929050565b7f4e487b7100000000000000000000000000000000000000000000000000000000600052602260045260246000fd5b600060028204905060018216806200046757607f821691505b602082108114156200047e576200047d6200041f565b5b50919050565b61264980620004946000396000f3fe608060405234801561001057600080fd5b50600436106101425760003560e01c806340c10f19116100b8578063a217fddf1161007c578063a217fddf1461039d578063a457c2d7146103bb578063a9059cbb146103eb578063d53913931461041b578063d547741f14610439578063dd62ed3e1461045557610142565b806340c10f19146102e757806370a082311461030357806391d148541461033357806395d89b41146103635780639dc29fac1461038157610142565b8063248a9ca31161010a578063248a9ca314610213578063282c51f3146102435780632f2ff15d14610261578063313ce5671461027d57806336568abe1461029b57806339509351146102b757610142565b806301ffc9a71461014757806306fdde0314610177578063095ea7b31461019557806318160ddd146101c557806323b872dd146101e3575b600080fd5b610161600480360381019061015c91906118c3565b610485565b60405161016e919061190b565b60405180910390f35b61017f6104ff565b60405161018c91906119bf565b60405180910390f35b6101af60048036038101906101aa9190611a75565b610591565b6040516101bc919061190b565b60405180910390f35b6101cd6105b4565b6040516101da9190611ac4565b60405180910390f35b6101fd60048036038101906101f89190611adf565b6105be565b60405161020a919061190b565b60405180910390f35b61022d60048036038101906102289190611b68565b6105ed565b60405161023a9190611ba4565b60405180910390f35b61024b61060d565b6040516102589190611ba4565b60405180910390f35b61027b60048036038101906102769190611bbf565b610631565b005b61028561065a565b6040516102929190611c1b565b60405180910390f35b6102b560048036038101906102b09190611bbf565b610663565b005b6102d160048036038101906102cc9190611a75565b6106e6565b6040516102de919061190b565b60405180910390f35b61030160048036038101906102fc9190611a75565b610790565b005b61031d60048036038101906103189190611c36565b6107d1565b60405161032a9190611ac4565b60405180910390f35b61034d60048036038101906103489190611bbf565b610819565b60405161035a919061190b565b60405180910390f35b61036b610884565b60405161037891906119bf565b60405180910390f35b61039b60048036038101906103969190611a75565b610916565b005b6103a5610957565b6040516103b29190611ba4565b60405180910390f35b6103d560048036038101906103d09190611a75565b61095e565b6040516103e2919061190b565b60405180910390f35b61040560048036038101906104009190611a75565b610a48565b604051610412919061190b565b60405180910390f35b610423610a6b565b6040516104309190611ba4565b60405180910390f35b610453600480360381019061044e9190611bbf565b610a8f565b005b61046f600480360381019061046a9190611c63565b610ab8565b60405161047c9190611ac4565b60405180910390f35b60007f7965db0b000000000000000000000000000000000000000000000000000000007bffffffffffffffffffffffffffffffffffffffffffffffffffffffff1916827bffffffffffffffffffffffffffffffffffffffffffffffffffffffff191614806104f857506104f782610b3f565b5b9050919050565b60606003805461050e90611cd2565b80601f016020809104026020016040519081016040528092919081815260200182805461053a90611cd2565b80156105875780601f1061055c57610100808354040283529160200191610587565b820191906000526020600020905b81548152906001019060200180831161056a57829003601f168201915b5050505050905090565b60008061059c610ba9565b90506105a9818585610bb1565b600191505092915050565b6000600254905090565b6000806105c9610ba9565b90506105d6858285610d7c565b6105e1858585610e08565b60019150509392505050565b600060056000838152602001908152602001600020600101549050919050565b7f3c11d16cbaffd01df69ce1c404f6340ee057498f5f00246190ea54220576a84881565b61063a826105ed565b61064b81610646610ba9565b611089565b6106558383611126565b505050565b60006012905090565b61066b610ba9565b73ffffffffffffffffffffffffffffffffffffffff168173ffffffffffffffffffffffffffffffffffffffff16146106d8576040517f08c379a00000000000000000000000000000000000000000000000000000000081526004016106cf90611d76565b60405180910390fd5b6106e28282611207565b5050565b6000806106f1610ba9565b9050610785818585600160008673ffffffffffffffffffffffffffffffffffffffff1673ffffffffffffffffffffffffffffffffffffffff16815260200190815260200160002060008973ffffffffffffffffffffffffffffffffffffffff1673ffffffffffffffffffffffffffffffffffffffff168152602001908152602001600020546107809190611dc5565b610bb1565b600191505092915050565b7f9f2df0fed2c77648de5860a4cc508cd0818c85b8b8a1ab4ceeef8d981c8956a66107c2816107bd610ba9565b611089565b6107cc83836112e9565b505050565b60008060008373ffffffffffffffffffffffffffffffffffffffff1673ffffffffffffffffffffffffffffffffffffffff168152602001908152602001600020549050919050565b60006005600084815260200190815260200160002060000160008373ffffffffffffffffffffffffffffffffffffffff1673ffffffffffffffffffffffffffffffffffffffff16815260200190815260200160002060009054906101000a900460ff16905092915050565b60606004805461089390611cd2565b80601f01602080910402602001604051908101604052809291908181526020018280546108bf90611cd2565b801561090c5780601f106108e15761010080835404028352916020019161090c565b820191906000526020600020905b8154815290600101906020018083116108ef57829003601f168201915b5050505050905090565b7f3c11d16cbaffd01df69ce1c404f6340ee057498f5f00246190ea54220576a84861094881610943610ba9565b611089565b6109528383611449565b505050565b6000801b81565b600080610969610ba9565b90506000600160008373ffffffffffffffffffffffffffffffffffffffff1673ffffffffffffffffffffffffffffffffffffffff16815260200190815260200160002060008673ffffffffffffffffffffffffffffffffffffffff1673ffffffffffffffffffffffffffffffffffffffff16815260200190815260200160002054905083811015610a2f576040517f08c379a0000000000000000000000000000000000000000000000000000000008152600401610a2690611e8d565b60405180910390fd5b610a3c8286868403610bb1565b60019250505092915050565b600080610a53610ba9565b9050610a60818585610e08565b600191505092915050565b7f9f2df0fed2c77648de5860a4cc508cd0818c85b8b8a1ab4ceeef8d981c8956a681565b610a98826105ed565b610aa981610aa4610ba9565b611089565b610ab38383611207565b505050565b6000600160008473ffffffffffffffffffffffffffffffffffffffff1673ffffffffffffffffffffffffffffffffffffffff16815260200190815260200160002060008373ffffffffffffffffffffffffffffffffffffffff1673ffffffffffffffffffffffffffffffffffffffff16815260200190815260200160002054905092915050565b60007f01ffc9a7000000000000000000000000000000000000000000000000000000007bffffffffffffffffffffffffffffffffffffffffffffffffffffffff1916827bffffffffffffffffffffffffffffffffffffffffffffffffffffffff1916149050919050565b600033905090565b600073ffffffffffffffffffffffffffffffffffffffff168373ffffffffffffffffffffffffffffffffffffffff161415610c21576040517f08c379a0000000000000000000000000000000000000000000000000000000008152600401610c1890611f1f565b60405180910390fd5b600073ffffffffffffffffffffffffffffffffffffffff168273ffffffffffffffffffffffffffffffffffffffff161415610c91576040517f08c379a0000000000000000000000000000000000000000000000000000000008152600401610c8890611fb1565b60405180910390fd5b80600160008573ffffffffffffffffffffffffffffffffffffffff1673ffffffffffffffffffffffffffffffffffffffff16815260200190815260200160002060008473ffffffffffffffffffffffffffffffffffffffff1673ffffffffffffffffffffffffffffffffffffffff168152602001908152602001600020819055508173ffffffffffffffffffffffffffffffffffffffff168373ffffffffffffffffffffffffffffffffffffffff167f8c5be1e5ebec7d5bd14f71427d1e84f3dd0314c0f7b2291e5b200ac8c7c3b92583604051610d6f9190611ac4565b60405180910390a3505050565b6000610d888484610ab8565b90507fffffffffffffffffffffffffffffffffffffffffffffffffffffffffffffffff8114610e025781811015610df4576040517f08c379a0000000000000000000000000000000000000000000000000000000008152600401610deb9061201d565b60405180910390fd5b610e018484848403610bb1565b5b50505050565b600073ffffffffffffffffffffffffffffffffffffffff168373ffffffffffffffffffffffffffffffffffffffff161415610e78576040517f08c379a0000000000000000000000000000000000000000000000000000000008152600401610e6f906120af565b60405180910390fd5b600073ffffffffffffffffffffffffffffffffffffffff168273ffffffffffffffffffffffffffffffffffffffff161415610ee8576040517f08c379a0000000000000000000000000000000000000000000000000000000008152600401610edf90612141565b60405180910390fd5b610ef3838383611620565b60008060008573ffffffffffffffffffffffffffffffffffffffff1673ffffffffffffffffffffffffffffffffffffffff16815260200190815260200160002054905081811015610f79576040517f08c379a0000000000000000000000000000000000000000000000000000000008152600401610f70906121d3565b60405180910390fd5b8181036000808673ffffffffffffffffffffffffffffffffffffffff1673ffffffffffffffffffffffffffffffffffffffff16815260200190815260200160002081905550816000808573ffffffffffffffffffffffffffffffffffffffff1673ffffffffffffffffffffffffffffffffffffffff168152602001908152602001600020600082825461100c9190611dc5565b925050819055508273ffffffffffffffffffffffffffffffffffffffff168473ffffffffffffffffffffffffffffffffffffffff167fddf252ad1be2c89b69c2b068fc378daa952ba7f163c4a11628f55a4df523b3ef846040516110709190611ac4565b60405180910390a3611083848484611625565b50505050565b6110938282610819565b611122576110b88173ffffffffffffffffffffffffffffffffffffffff16601461162a565b6110c68360001c602061162a565b6040516020016110d79291906122c7565b6040516020818303038152906040526040517f08c379a000000000000000000000000000000000000000000000000000000000815260040161111991906119bf565b60405180910390fd5b5050565b6111308282610819565b6112035760016005600084815260200190815260200160002060000160008373ffffffffffffffffffffffffffffffffffffffff1673ffffffffffffffffffffffffffffffffffffffff16815260200190815260200160002060006101000a81548160ff0219169083151502179055506111a8610ba9565b73ffffffffffffffffffffffffffffffffffffffff168173ffffffffffffffffffffffffffffffffffffffff16837f2f8788117e7eff1d82e926ec794901d17c78024a50270940304540a733656f0d60405160405180910390a45b5050565b6112118282610819565b156112e55760006005600084815260200190815260200160002060000160008373ffffffffffffffffffffffffffffffffffffffff1673ffffffffffffffffffffffffffffffffffffffff16815260200190815260200160002060006101000a81548160ff02191690831515021790555061128a610ba9565b73ffffffffffffffffffffffffffffffffffffffff168173ffffffffffffffffffffffffffffffffffffffff16837ff6391f5c32d9c69d2a47ea670b442974b53935d1edc7fd64eb21e047a839171b60405160405180910390a45b5050565b600073ffffffffffffffffffffffffffffffffffffffff168273ffffffffffffffffffffffffffffffffffffffff161415611359576040517f08c379a00000000000000000000000000000000000000000000000000000000081526004016113509061234d565b60405180910390fd5b61136560008383611620565b80600260008282546113779190611dc5565b92505081905550806000808473ffffffffffffffffffffffffffffffffffffffff1673ffffffffffffffffffffffffffffffffffffffff16815260200190815260200160002060008282546113cc9190611dc5565b925050819055508173ffffffffffffffffffffffffffffffffffffffff16600073ffffffffffffffffffffffffffffffffffffffff167fddf252ad1be2c89b69c2b068fc378daa952ba7f163c4a11628f55a4df523b3ef836040516114319190611ac4565b60405180910390a361144560008383611625565b5050565b600073ffffffffffffffffffffffffffffffffffffffff168273ffffffffffffffffffffffffffffffffffffffff1614156114b9576040517f08c379a00000000000000000000000000000000000000000000000000000000081526004016114b0906123df565b60405180910390fd5b6114c582600083611620565b60008060008473ffffffffffffffffffffffffffffffffffffffff1673ffffffffffffffffffffffffffffffffffffffff1681526020019081526020016000205490508181101561154b576040517f08c379a000000000000000000000000000000000000000000000000000000000815260040161154290612471565b60405180910390fd5b8181036000808573ffffffffffffffffffffffffffffffffffffffff1673ffffffffffffffffffffffffffffffffffffffff1681526020019081526020016000208190555081600260008282546115a29190612491565b92505081905550600073ffffffffffffffffffffffffffffffffffffffff168373ffffffffffffffffffffffffffffffffffffffff167fddf252ad1be2c89b69c2b068fc378daa952ba7f163c4a11628f55a4df523b3ef846040516116079190611ac4565b60405180910390a361161b83600084611625565b505050565b505050565b505050565b60606000600283600261163d91906124c5565b6116479190611dc5565b67ffffffffffffffff8111156116605761165f61251f565b5b6040519080825280601f01601f1916602001820160405280156116925781602001600182028036833780820191505090505b5090507f3000000000000000000000000000000000000000000000000000000000000000816000815181106116ca576116c961254e565b5b60200101907effffffffffffffffffffffffffffffffffffffffffffffffffffffffffffff1916908160001a9053507f78000000000000000000000000000000000000000000000000000000000000008160018151811061172e5761172d61254e565b5b60200101907effffffffffffffffffffffffffffffffffffffffffffffffffffffffffffff1916908160001a9053506000600184600261176e91906124c5565b6117789190611dc5565b90505b6001811115611818577f3031323334353637383961626364656600000000000000000000000000000000600f8616601081106117ba576117b961254e565b5b1a60f81b8282815181106117d1576117d061254e565b5b60200101907effffffffffffffffffffffffffffffffffffffffffffffffffffffffffffff1916908160001a905350600485901c9450806118119061257d565b905061177b565b506000841461185c576040517f08c379a0000000000000000000000000000000000000000000000000000000008152600401611853906125f3565b60405180910390fd5b8091505092915050565b600080fd5b60007fffffffff0000000000000000000000000000000000000000000000000000000082169050919050565b6118a08161186b565b81146118ab57600080fd5b50565b6000813590506118bd81611897565b92915050565b6000602082840312156118d9576118d8611866565b5b60006118e7848285016118ae565b91505092915050565b60008115159050919050565b611905816118f0565b82525050565b600060208201905061192060008301846118fc565b92915050565b600081519050919050565b600082825260208201905092915050565b60005b83811015611960578082015181840152602081019050611945565b8381111561196f576000848401525b50505050565b6000601f19601f8301169050919050565b600061199182611926565b61199b8185611931565b93506119ab818560208601611942565b6119b481611975565b840191505092915050565b600060208201905081810360008301526119d98184611986565b905092915050565b600073ffffffffffffffffffffffffffffffffffffffff82169050919050565b6000611a0c826119e1565b9050919050565b611a1c81611a01565b8114611a2757600080fd5b50565b600081359050611a3981611a13565b92915050565b6000819050919050565b611a5281611a3f565b8114611a5d57600080fd5b50565b600081359050611a6f81611a49565b92915050565b60008060408385031215611a8c57611a8b611866565b5b6000611a9a85828601611a2a565b9250506020611aab85828601611a60565b9150509250929050565b611abe81611a3f565b82525050565b6000602082019050611ad96000830184611ab5565b92915050565b600080600060608486031215611af857611af7611866565b5b6000611b0686828701611a2a565b9350506020611b1786828701611a2a565b9250506040611b2886828701611a60565b9150509250925092565b6000819050919050565b611b4581611b32565b8114611b5057600080fd5b50565b600081359050611b6281611b3c565b92915050565b600060208284031215611b7e57611b7d611866565b5b6000611b8c84828501611b53565b91505092915050565b611b9e81611b32565b82525050565b6000602082019050611bb96000830184611b95565b92915050565b60008060408385031215611bd657611bd5611866565b5b6000611be485828601611b53565b9250506020611bf585828601611a2a565b9150509250929050565b600060ff82169050919050565b611c1581611bff565b82525050565b6000602082019050611c306000830184611c0c565b92915050565b600060208284031215611c4c57611c4b611866565b5b6000611c5a84828501611a2a565b91505092915050565b60008060408385031215611c7a57611c79611866565b5b6000611c8885828601611a2a565b9250506020611c9985828601611a2a565b9150509250929050565b7f4e487b7100000000000000000000000000000000000000000000000000000000600052602260045260246000fd5b60006002820490506001821680611cea57607f821691505b60208210811415611cfe57611cfd611ca3565b5b50919050565b7f416363657373436f6e74726f6c3a2063616e206f6e6c792072656e6f756e636560008201527f20726f6c657320666f722073656c660000000000000000000000000000000000602082015250565b6000611d60602f83611931565b9150611d6b82611d04565b604082019050919050565b60006020820190508181036000830152611d8f81611d53565b9050919050565b7f4e487b7100000000000000000000000000000000000000000000000000000000600052601160045260246000fd5b6000611dd082611a3f565b9150611ddb83611a3f565b9250827fffffffffffffffffffffffffffffffffffffffffffffffffffffffffffffffff03821115611e1057611e0f611d96565b5b828201905092915050565b7f45524332303a2064656372656173656420616c6c6f77616e63652062656c6f7760008201527f207a65726f000000000000000000000000000000000000000000000000000000602082015250565b6000611e77602583611931565b9150611e8282611e1b565b604082019050919050565b60006020820190508181036000830152611ea681611e6a565b9050919050565b7f45524332303a20617070726f76652066726f6d20746865207a65726f2061646460008201527f7265737300000000000000000000000000000000000000000000000000000000602082015250565b6000611f09602483611931565b9150611f1482611ead565b604082019050919050565b60006020820190508181036000830152611f3881611efc565b9050919050565b7f45524332303a20617070726f766520746f20746865207a65726f20616464726560008201527f7373000000000000000000000000000000000000000000000000000000000000602082015250565b6000611f9b602283611931565b9150611fa682611f3f565b604082019050919050565b60006020820190508181036000830152611fca81611f8e565b9050919050565b7f45524332303a20696e73756666696369656e7420616c6c6f77616e6365000000600082015250565b6000612007601d83611931565b915061201282611fd1565b602082019050919050565b6000602082019050818103600083015261203681611ffa565b9050919050565b7f45524332303a207472616e736665722066726f6d20746865207a65726f20616460008201527f6472657373000000000000000000000000000000000000000000000000000000602082015250565b6000612099602583611931565b91506120a48261203d565b604082019050919050565b600060208201905081810360008301526120c88161208c565b9050919050565b7f45524332303a207472616e7366657220746f20746865207a65726f206164647260008201527f6573730000000000000000000000000000000000000000000000000000000000602082015250565b600061212b602383611931565b9150612136826120cf565b604082019050919050565b6000602082019050818103600083015261215a8161211e565b9050919050565b7f45524332303a207472616e7366657220616d6f756e742065786365656473206260008201527f616c616e63650000000000000000000000000000000000000000000000000000602082015250565b60006121bd602683611931565b91506121c882612161565b604082019050919050565b600060208201905081810360008301526121ec816121b0565b9050919050565b600081905092915050565b7f416363657373436f6e74726f6c3a206163636f756e7420000000000000000000600082015250565b60006122346017836121f3565b915061223f826121fe565b601782019050919050565b600061225582611926565b61225f81856121f3565b935061226f818560208601611942565b80840191505092915050565b7f206973206d697373696e6720726f6c6520000000000000000000000000000000600082015250565b60006122b16011836121f3565b91506122bc8261227b565b601182019050919050565b60006122d282612227565b91506122de828561224a565b91506122e9826122a4565b91506122f5828461224a565b91508190509392505050565b7f45524332303a206d696e7420746f20746865207a65726f206164647265737300600082015250565b6000612337601f83611931565b915061234282612301565b602082019050919050565b600060208201905081810360008301526123668161232a565b9050919050565b7f45524332303a206275726e2066726f6d20746865207a65726f2061646472657360008201527f7300000000000000000000000000000000000000000000000000000000000000602082015250565b60006123c9602183611931565b91506123d48261236d565b604082019050919050565b600060208201905081810360008301526123f8816123bc565b9050919050565b7f45524332303a206275726e20616d6f756e7420657863656564732062616c616e60008201527f6365000000000000000000000000000000000000000000000000000000000000602082015250565b600061245b602283611931565b9150612466826123ff565b604082019050919050565b6000602082019050818103600083015261248a8161244e565b9050919050565b600061249c82611a3f565b91506124a783611a3f565b9250828210156124ba576124b9611d96565b5b828203905092915050565b60006124d082611a3f565b91506124db83611a3f565b9250817fffffffffffffffffffffffffffffffffffffffffffffffffffffffffffffffff048311821515161561251457612513611d96565b5b828202905092915050565b7f4e487b7100000000000000000000000000000000000000000000000000000000600052604160045260246000fd5b7f4e487b7100000000000000000000000000000000000000000000000000000000600052603260045260246000fd5b600061258882611a3f565b9150600082141561259c5761259b611d96565b5b600182039050919050565b7f537472696e67733a20686578206c656e67746820696e73756666696369656e74600082015250565b60006125dd602083611931565b91506125e8826125a7565b602082019050919050565b6000602082019050818103600083015261260c816125d0565b905091905056fea2646970667358221220872237fe09a7379d0653c2c2288872fa209e021ae6f117a6ff58de367e5a943164736f6c634300080c0033",
  "linkReferences": {},
  "deployedLinkReferences": {}
}