{
  "_format": "hh-sol-artifact-1",
  "contractName": "MyCollectible",
  "sourceName": "contracts/MyNFT.sol",
  "abi": [
    {
      "anonymous": false,
      "inputs": [
        {
          "indexed": true,
          "internalType": "address",
          "name": "owner",
          "type": "address"
        },
        {
          "indexed": true,
          "internalType": "address",
          "name": "approved",
          "type": "address"
        },
        {
          "indexed": true,
          "internalType": "uint256",
          "name": "tokenId",
          "type": "uint256"
        }
      ],
      "name": "Approval",
      "type": "event"
    },
    {
      "anonymous": false,
      "inputs": [
        {
          "indexed": true,
          "internalType": "address",
          "name": "owner",
          "type": "address"
        },
        {
          "indexed": true,
          "internalType": "address",
          "name": "operator",
          "type": "address"
        },
        {
          "indexed": false,
          "internalType": "bool",
          "name": "approved",
          "type": "bool"
        }
      ],
      "name": "ApprovalForAll",
      "type": "event"
    },
    {
      "anonymous": false,
      "inputs": [
        {
          "indexed": true,
          "internalType": "address",
          "name": "from",
          "type": "address"
        },
        {
          "indexed": true,
          "internalType": "address",
          "name": "to",
          "type": "address"
        },
        {
          "indexed": true,
          "internalType": "uint256",
          "name": "tokenId",
          "type": "uint256"
        }
      ],
      "name": "Transfer",
      "type": "event"
    },
    {
      "inputs": [
        {
          "internalType": "address",
          "name": "to",
          "type": "address"
        },
        {
          "internalType": "uint256",
          "name": "tokenId",
          "type": "uint256"
        }
      ],
      "name": "approve",
      "outputs": [],
      "stateMutability": "nonpayable",
      "type": "function"
    },
    {
      "inputs": [
        {
          "internalType": "address",
          "name": "owner",
          "type": "address"
        }
      ],
      "name": "balanceOf",
      "outputs": [
        {
          "internalType": "uint256",
          "name": "",
          "type": "uint256"
        }
      ],
      "stateMutability": "view",
      "type": "function"
    },
    {
      "inputs": [
        {
          "internalType": "uint256",
          "name": "tokenId",
          "type": "uint256"
        }
      ],
      "name": "getApproved",
      "outputs": [
        {
          "internalType": "address",
          "name": "",
          "type": "address"
        }
      ],
      "stateMutability": "view",
      "type": "function"
    },
    {
      "inputs": [],
      "name": "initialize",
      "outputs": [],
      "stateMutability": "nonpayable",
      "type": "function"
    },
    {
      "inputs": [
        {
          "internalType": "address",
          "name": "owner",
          "type": "address"
        },
        {
          "internalType": "address",
          "name": "operator",
          "type": "address"
        }
      ],
      "name": "isApprovedForAll",
      "outputs": [
        {
          "internalType": "bool",
          "name": "",
          "type": "bool"
        }
      ],
      "stateMutability": "view",
      "type": "function"
    },
    {
      "inputs": [],
      "name": "name",
      "outputs": [
        {
          "internalType": "string",
          "name": "",
          "type": "string"
        }
      ],
      "stateMutability": "view",
      "type": "function"
    },
    {
      "inputs": [
        {
          "internalType": "uint256",
          "name": "tokenId",
          "type": "uint256"
        }
      ],
      "name": "ownerOf",
      "outputs": [
        {
          "internalType": "address",
          "name": "",
          "type": "address"
        }
      ],
      "stateMutability": "view",
      "type": "function"
    },
    {
      "inputs": [
        {
          "internalType": "address",
          "name": "from",
          "type": "address"
        },
        {
          "internalType": "address",
          "name": "to",
          "type": "address"
        },
        {
          "internalType": "uint256",
          "name": "tokenId",
          "type": "uint256"
        }
      ],
      "name": "safeTransferFrom",
      "outputs": [],
      "stateMutability": "nonpayable",
      "type": "function"
    },
    {
      "inputs": [
        {
          "internalType": "address",
          "name": "from",
          "type": "address"
        },
        {
          "internalType": "address",
          "name": "to",
          "type": "address"
        },
        {
          "internalType": "uint256",
          "name": "tokenId",
          "type": "uint256"
        },
        {
          "internalType": "bytes",
          "name": "_data",
          "type": "bytes"
        }
      ],
      "name": "safeTransferFrom",
      "outputs": [],
      "stateMutability": "nonpayable",
      "type": "function"
    },
    {
      "inputs": [
        {
          "internalType": "address",
          "name": "operator",
          "type": "address"
        },
        {
          "internalType": "bool",
          "name": "approved",
          "type": "bool"
        }
      ],
      "name": "setApprovalForAll",
      "outputs": [],
      "stateMutability": "nonpayable",
      "type": "function"
    },
    {
      "inputs": [
        {
          "internalType": "bytes4",
          "name": "interfaceId",
          "type": "bytes4"
        }
      ],
      "name": "supportsInterface",
      "outputs": [
        {
          "internalType": "bool",
          "name": "",
          "type": "bool"
        }
      ],
      "stateMutability": "view",
      "type": "function"
    },
    {
      "inputs": [],
      "name": "symbol",
      "outputs": [
        {
          "internalType": "string",
          "name": "",
          "type": "string"
        }
      ],
      "stateMutability": "view",
      "type": "function"
    },
    {
      "inputs": [
        {
          "internalType": "uint256",
          "name": "tokenId",
          "type": "uint256"
        }
      ],
      "name": "tokenURI",
      "outputs": [
        {
          "internalType": "string",
          "name": "",
          "type": "string"
        }
      ],
      "stateMutability": "view",
      "type": "function"
    },
    {
      "inputs": [
        {
          "internalType": "address",
          "name": "from",
          "type": "address"
        },
        {
          "internalType": "address",
          "name": "to",
          "type": "address"
        },
        {
          "internalType": "uint256",
          "name": "tokenId",
          "type": "uint256"
        }
      ],
      "name": "transferFrom",
      "outputs": [],
      "stateMutability": "nonpayable",
      "type": "function"
    }
  ],
  "bytecode": "0x608060405234801561001057600080fd5b50612812806100206000396000f3fe608060405234801561001057600080fd5b50600436106100ea5760003560e01c806370a082311161008c578063a22cb46511610066578063a22cb46514610249578063b88d4fde14610265578063c87b56dd14610281578063e985e9c5146102b1576100ea565b806370a08231146101f15780638129fc1c1461022157806395d89b411461022b576100ea565b8063095ea7b3116100c8578063095ea7b31461016d57806323b872dd1461018957806342842e0e146101a55780636352211e146101c1576100ea565b806301ffc9a7146100ef57806306fdde031461011f578063081812fc1461013d575b600080fd5b61010960048036038101906101049190611749565b6102e1565b6040516101169190611791565b60405180910390f35b6101276103c3565b6040516101349190611845565b60405180910390f35b6101576004803603810190610152919061189d565b610455565b604051610164919061190b565b60405180910390f35b61018760048036038101906101829190611952565b6104da565b005b6101a3600480360381019061019e9190611992565b6105f2565b005b6101bf60048036038101906101ba9190611992565b610652565b005b6101db60048036038101906101d6919061189d565b610672565b6040516101e8919061190b565b60405180910390f35b61020b600480360381019061020691906119e5565b610724565b6040516102189190611a21565b60405180910390f35b6102296107dc565b005b610233610934565b6040516102409190611845565b60405180910390f35b610263600480360381019061025e9190611a68565b6109c6565b005b61027f600480360381019061027a9190611bdd565b6109dc565b005b61029b6004803603810190610296919061189d565b610a3e565b6040516102a89190611845565b60405180910390f35b6102cb60048036038101906102c69190611c60565b610ae5565b6040516102d89190611791565b60405180910390f35b60007f80ac58cd000000000000000000000000000000000000000000000000000000007bffffffffffffffffffffffffffffffffffffffffffffffffffffffff1916827bffffffffffffffffffffffffffffffffffffffffffffffffffffffff191614806103ac57507f5b5e139f000000000000000000000000000000000000000000000000000000007bffffffffffffffffffffffffffffffffffffffffffffffffffffffff1916827bffffffffffffffffffffffffffffffffffffffffffffffffffffffff1916145b806103bc57506103bb82610b79565b5b9050919050565b6060606580546103d290611ccf565b80601f01602080910402602001604051908101604052809291908181526020018280546103fe90611ccf565b801561044b5780601f106104205761010080835404028352916020019161044b565b820191906000526020600020905b81548152906001019060200180831161042e57829003601f168201915b5050505050905090565b600061046082610be3565b61049f576040517f08c379a000000000000000000000000000000000000000000000000000000000815260040161049690611d73565b60405180910390fd5b6069600083815260200190815260200160002060009054906101000a900473ffffffffffffffffffffffffffffffffffffffff169050919050565b60006104e582610672565b90508073ffffffffffffffffffffffffffffffffffffffff168373ffffffffffffffffffffffffffffffffffffffff161415610556576040517f08c379a000000000000000000000000000000000000000000000000000000000815260040161054d90611e05565b60405180910390fd5b8073ffffffffffffffffffffffffffffffffffffffff16610575610c4f565b73ffffffffffffffffffffffffffffffffffffffff1614806105a457506105a38161059e610c4f565b610ae5565b5b6105e3576040517f08c379a00000000000000000000000000000000000000000000000000000000081526004016105da90611e97565b60405180910390fd5b6105ed8383610c57565b505050565b6106036105fd610c4f565b82610d10565b610642576040517f08c379a000000000000000000000000000000000000000000000000000000000815260040161063990611f29565b60405180910390fd5b61064d838383610dee565b505050565b61066d838383604051806020016040528060008152506109dc565b505050565b6000806067600084815260200190815260200160002060009054906101000a900473ffffffffffffffffffffffffffffffffffffffff169050600073ffffffffffffffffffffffffffffffffffffffff168173ffffffffffffffffffffffffffffffffffffffff16141561071b576040517f08c379a000000000000000000000000000000000000000000000000000000000815260040161071290611fbb565b60405180910390fd5b80915050919050565b60008073ffffffffffffffffffffffffffffffffffffffff168273ffffffffffffffffffffffffffffffffffffffff161415610795576040517f08c379a000000000000000000000000000000000000000000000000000000000815260040161078c9061204d565b60405180910390fd5b606860008373ffffffffffffffffffffffffffffffffffffffff1673ffffffffffffffffffffffffffffffffffffffff168152602001908152602001600020549050919050565b600060019054906101000a900460ff166108045760008054906101000a900460ff161561080d565b61080c611055565b5b61084c576040517f08c379a0000000000000000000000000000000000000000000000000000000008152600401610843906120df565b60405180910390fd5b60008060019054906101000a900460ff16159050801561089c576001600060016101000a81548160ff02191690831515021790555060016000806101000a81548160ff0219169083151502179055505b6109106040518060400160405280600d81526020017f4d79436f6c6c65637469626c65000000000000000000000000000000000000008152506040518060400160405280600381526020017f4d434f0000000000000000000000000000000000000000000000000000000000815250611066565b80156109315760008060016101000a81548160ff0219169083151502179055505b50565b60606066805461094390611ccf565b80601f016020809104026020016040519081016040528092919081815260200182805461096f90611ccf565b80156109bc5780601f10610991576101008083540402835291602001916109bc565b820191906000526020600020905b81548152906001019060200180831161099f57829003601f168201915b5050505050905090565b6109d86109d1610c4f565b83836110c3565b5050565b6109ed6109e7610c4f565b83610d10565b610a2c576040517f08c379a0000000000000000000000000000000000000000000000000000000008152600401610a2390611f29565b60405180910390fd5b610a3884848484611230565b50505050565b6060610a4982610be3565b610a88576040517f08c379a0000000000000000000000000000000000000000000000000000000008152600401610a7f90612171565b60405180910390fd5b6000610a9261128c565b90506000815111610ab25760405180602001604052806000815250610add565b80610abc846112a3565b604051602001610acd9291906121cd565b6040516020818303038152906040525b915050919050565b6000606a60008473ffffffffffffffffffffffffffffffffffffffff1673ffffffffffffffffffffffffffffffffffffffff16815260200190815260200160002060008373ffffffffffffffffffffffffffffffffffffffff1673ffffffffffffffffffffffffffffffffffffffff16815260200190815260200160002060009054906101000a900460ff16905092915050565b60007f01ffc9a7000000000000000000000000000000000000000000000000000000007bffffffffffffffffffffffffffffffffffffffffffffffffffffffff1916827bffffffffffffffffffffffffffffffffffffffffffffffffffffffff1916149050919050565b60008073ffffffffffffffffffffffffffffffffffffffff166067600084815260200190815260200160002060009054906101000a900473ffffffffffffffffffffffffffffffffffffffff1673ffffffffffffffffffffffffffffffffffffffff1614159050919050565b600033905090565b816069600083815260200190815260200160002060006101000a81548173ffffffffffffffffffffffffffffffffffffffff021916908373ffffffffffffffffffffffffffffffffffffffff160217905550808273ffffffffffffffffffffffffffffffffffffffff16610cca83610672565b73ffffffffffffffffffffffffffffffffffffffff167f8c5be1e5ebec7d5bd14f71427d1e84f3dd0314c0f7b2291e5b200ac8c7c3b92560405160405180910390a45050565b6000610d1b82610be3565b610d5a576040517f08c379a0000000000000000000000000000000000000000000000000000000008152600401610d5190612263565b60405180910390fd5b6000610d6583610672565b90508073ffffffffffffffffffffffffffffffffffffffff168473ffffffffffffffffffffffffffffffffffffffff161480610dd457508373ffffffffffffffffffffffffffffffffffffffff16610dbc84610455565b73ffffffffffffffffffffffffffffffffffffffff16145b80610de55750610de48185610ae5565b5b91505092915050565b8273ffffffffffffffffffffffffffffffffffffffff16610e0e82610672565b73ffffffffffffffffffffffffffffffffffffffff1614610e64576040517f08c379a0000000000000000000000000000000000000000000000000000000008152600401610e5b906122f5565b60405180910390fd5b600073ffffffffffffffffffffffffffffffffffffffff168273ffffffffffffffffffffffffffffffffffffffff161415610ed4576040517f08c379a0000000000000000000000000000000000000000000000000000000008152600401610ecb90612387565b60405180910390fd5b610edf838383611404565b610eea600082610c57565b6001606860008573ffffffffffffffffffffffffffffffffffffffff1673ffffffffffffffffffffffffffffffffffffffff1681526020019081526020016000206000828254610f3a91906123d6565b925050819055506001606860008473ffffffffffffffffffffffffffffffffffffffff1673ffffffffffffffffffffffffffffffffffffffff1681526020019081526020016000206000828254610f91919061240a565b92505081905550816067600083815260200190815260200160002060006101000a81548173ffffffffffffffffffffffffffffffffffffffff021916908373ffffffffffffffffffffffffffffffffffffffff160217905550808273ffffffffffffffffffffffffffffffffffffffff168473ffffffffffffffffffffffffffffffffffffffff167fddf252ad1be2c89b69c2b068fc378daa952ba7f163c4a11628f55a4df523b3ef60405160405180910390a4611050838383611409565b505050565b60006110603061140e565b15905090565b600060019054906101000a900460ff166110b5576040517f08c379a00000000000000000000000000000000000000000000000000000000081526004016110ac906124d2565b60405180910390fd5b6110bf8282611431565b5050565b8173ffffffffffffffffffffffffffffffffffffffff168373ffffffffffffffffffffffffffffffffffffffff161415611132576040517f08c379a00000000000000000000000000000000000000000000000000000000081526004016111299061253e565b60405180910390fd5b80606a60008573ffffffffffffffffffffffffffffffffffffffff1673ffffffffffffffffffffffffffffffffffffffff16815260200190815260200160002060008473ffffffffffffffffffffffffffffffffffffffff1673ffffffffffffffffffffffffffffffffffffffff16815260200190815260200160002060006101000a81548160ff0219169083151502179055508173ffffffffffffffffffffffffffffffffffffffff168373ffffffffffffffffffffffffffffffffffffffff167f17307eab39ab6107e8899845ad3d59bd9653f200f220920489ca2b5937696c31836040516112239190611791565b60405180910390a3505050565b61123b848484610dee565b611247848484846114b2565b611286576040517f08c379a000000000000000000000000000000000000000000000000000000000815260040161127d906125d0565b60405180910390fd5b50505050565b606060405180602001604052806000815250905090565b606060008214156112eb576040518060400160405280600181526020017f300000000000000000000000000000000000000000000000000000000000000081525090506113ff565b600082905060005b6000821461131d578080611306906125f0565b915050600a826113169190612668565b91506112f3565b60008167ffffffffffffffff81111561133957611338611ab2565b5b6040519080825280601f01601f19166020018201604052801561136b5781602001600182028036833780820191505090505b5090505b600085146113f85760018261138491906123d6565b9150600a856113939190612699565b603061139f919061240a565b60f81b8183815181106113b5576113b46126ca565b5b60200101907effffffffffffffffffffffffffffffffffffffffffffffffffffffffffffff1916908160001a905350600a856113f19190612668565b945061136f565b8093505050505b919050565b505050565b505050565b6000808273ffffffffffffffffffffffffffffffffffffffff163b119050919050565b600060019054906101000a900460ff16611480576040517f08c379a0000000000000000000000000000000000000000000000000000000008152600401611477906124d2565b60405180910390fd5b816065908051906020019061149692919061163a565b5080606690805190602001906114ad92919061163a565b505050565b60006114d38473ffffffffffffffffffffffffffffffffffffffff1661140e565b1561162d578373ffffffffffffffffffffffffffffffffffffffff1663150b7a026114fc610c4f565b8786866040518563ffffffff1660e01b815260040161151e949392919061274e565b6020604051808303816000875af192505050801561155a57506040513d601f19601f8201168201806040525081019061155791906127af565b60015b6115dd573d806000811461158a576040519150601f19603f3d011682016040523d82523d6000602084013e61158f565b606091505b506000815114156115d5576040517f08c379a00000000000000000000000000000000000000000000000000000000081526004016115cc906125d0565b60405180910390fd5b805181602001fd5b63150b7a0260e01b7bffffffffffffffffffffffffffffffffffffffffffffffffffffffff1916817bffffffffffffffffffffffffffffffffffffffffffffffffffffffff191614915050611632565b600190505b949350505050565b82805461164690611ccf565b90600052602060002090601f01602090048101928261166857600085556116af565b82601f1061168157805160ff19168380011785556116af565b828001600101855582156116af579182015b828111156116ae578251825591602001919060010190611693565b5b5090506116bc91906116c0565b5090565b5b808211156116d95760008160009055506001016116c1565b5090565b6000604051905090565b600080fd5b600080fd5b60007fffffffff0000000000000000000000000000000000000000000000000000000082169050919050565b611726816116f1565b811461173157600080fd5b50565b6000813590506117438161171d565b92915050565b60006020828403121561175f5761175e6116e7565b5b600061176d84828501611734565b91505092915050565b60008115159050919050565b61178b81611776565b82525050565b60006020820190506117a66000830184611782565b92915050565b600081519050919050565b600082825260208201905092915050565b60005b838110156117e65780820151818401526020810190506117cb565b838111156117f5576000848401525b50505050565b6000601f19601f8301169050919050565b6000611817826117ac565b61182181856117b7565b93506118318185602086016117c8565b61183a816117fb565b840191505092915050565b6000602082019050818103600083015261185f818461180c565b905092915050565b6000819050919050565b61187a81611867565b811461188557600080fd5b50565b60008135905061189781611871565b92915050565b6000602082840312156118b3576118b26116e7565b5b60006118c184828501611888565b91505092915050565b600073ffffffffffffffffffffffffffffffffffffffff82169050919050565b60006118f5826118ca565b9050919050565b611905816118ea565b82525050565b600060208201905061192060008301846118fc565b92915050565b61192f816118ea565b811461193a57600080fd5b50565b60008135905061194c81611926565b92915050565b60008060408385031215611969576119686116e7565b5b60006119778582860161193d565b925050602061198885828601611888565b9150509250929050565b6000806000606084860312156119ab576119aa6116e7565b5b60006119b98682870161193d565b93505060206119ca8682870161193d565b92505060406119db86828701611888565b9150509250925092565b6000602082840312156119fb576119fa6116e7565b5b6000611a098482850161193d565b91505092915050565b611a1b81611867565b82525050565b6000602082019050611a366000830184611a12565b92915050565b611a4581611776565b8114611a5057600080fd5b50565b600081359050611a6281611a3c565b92915050565b60008060408385031215611a7f57611a7e6116e7565b5b6000611a8d8582860161193d565b9250506020611a9e85828601611a53565b9150509250929050565b600080fd5b600080fd5b7f4e487b7100000000000000000000000000000000000000000000000000000000600052604160045260246000fd5b611aea826117fb565b810181811067ffffffffffffffff82111715611b0957611b08611ab2565b5b80604052505050565b6000611b1c6116dd565b9050611b288282611ae1565b919050565b600067ffffffffffffffff821115611b4857611b47611ab2565b5b611b51826117fb565b9050602081019050919050565b82818337600083830152505050565b6000611b80611b7b84611b2d565b611b12565b905082815260208101848484011115611b9c57611b9b611aad565b5b611ba7848285611b5e565b509392505050565b600082601f830112611bc457611bc3611aa8565b5b8135611bd4848260208601611b6d565b91505092915050565b60008060008060808587031215611bf757611bf66116e7565b5b6000611c058782880161193d565b9450506020611c168782880161193d565b9350506040611c2787828801611888565b925050606085013567ffffffffffffffff811115611c4857611c476116ec565b5b611c5487828801611baf565b91505092959194509250565b60008060408385031215611c7757611c766116e7565b5b6000611c858582860161193d565b9250506020611c968582860161193d565b9150509250929050565b7f4e487b7100000000000000000000000000000000000000000000000000000000600052602260045260246000fd5b60006002820490506001821680611ce757607f821691505b60208210811415611cfb57611cfa611ca0565b5b50919050565b7f4552433732313a20617070726f76656420717565727920666f72206e6f6e657860008201527f697374656e7420746f6b656e0000000000000000000000000000000000000000602082015250565b6000611d5d602c836117b7565b9150611d6882611d01565b604082019050919050565b60006020820190508181036000830152611d8c81611d50565b9050919050565b7f4552433732313a20617070726f76616c20746f2063757272656e74206f776e6560008201527f7200000000000000000000000000000000000000000000000000000000000000602082015250565b6000611def6021836117b7565b9150611dfa82611d93565b604082019050919050565b60006020820190508181036000830152611e1e81611de2565b9050919050565b7f4552433732313a20617070726f76652063616c6c6572206973206e6f74206f7760008201527f6e6572206e6f7220617070726f76656420666f7220616c6c0000000000000000602082015250565b6000611e816038836117b7565b9150611e8c82611e25565b604082019050919050565b60006020820190508181036000830152611eb081611e74565b9050919050565b7f4552433732313a207472616e736665722063616c6c6572206973206e6f74206f60008201527f776e6572206e6f7220617070726f766564000000000000000000000000000000602082015250565b6000611f136031836117b7565b9150611f1e82611eb7565b604082019050919050565b60006020820190508181036000830152611f4281611f06565b9050919050565b7f4552433732313a206f776e657220717565727920666f72206e6f6e657869737460008201527f656e7420746f6b656e0000000000000000000000000000000000000000000000602082015250565b6000611fa56029836117b7565b9150611fb082611f49565b604082019050919050565b60006020820190508181036000830152611fd481611f98565b9050919050565b7f4552433732313a2062616c616e636520717565727920666f7220746865207a6560008201527f726f206164647265737300000000000000000000000000000000000000000000602082015250565b6000612037602a836117b7565b915061204282611fdb565b604082019050919050565b600060208201905081810360008301526120668161202a565b9050919050565b7f496e697469616c697a61626c653a20636f6e747261637420697320616c72656160008201527f647920696e697469616c697a6564000000000000000000000000000000000000602082015250565b60006120c9602e836117b7565b91506120d48261206d565b604082019050919050565b600060208201905081810360008301526120f8816120bc565b9050919050565b7f4552433732314d657461646174613a2055524920717565727920666f72206e6f60008201527f6e6578697374656e7420746f6b656e0000000000000000000000000000000000602082015250565b600061215b602f836117b7565b9150612166826120ff565b604082019050919050565b6000602082019050818103600083015261218a8161214e565b9050919050565b600081905092915050565b60006121a7826117ac565b6121b18185612191565b93506121c18185602086016117c8565b80840191505092915050565b60006121d9828561219c565b91506121e5828461219c565b91508190509392505050565b7f4552433732313a206f70657261746f7220717565727920666f72206e6f6e657860008201527f697374656e7420746f6b656e0000000000000000000000000000000000000000602082015250565b600061224d602c836117b7565b9150612258826121f1565b604082019050919050565b6000602082019050818103600083015261227c81612240565b9050919050565b7f4552433732313a207472616e736665722066726f6d20696e636f72726563742060008201527f6f776e6572000000000000000000000000000000000000000000000000000000602082015250565b60006122df6025836117b7565b91506122ea82612283565b604082019050919050565b6000602082019050818103600083015261230e816122d2565b9050919050565b7f4552433732313a207472616e7366657220746f20746865207a65726f2061646460008201527f7265737300000000000000000000000000000000000000000000000000000000602082015250565b60006123716024836117b7565b915061237c82612315565b604082019050919050565b600060208201905081810360008301526123a081612364565b9050919050565b7f4e487b7100000000000000000000000000000000000000000000000000000000600052601160045260246000fd5b60006123e182611867565b91506123ec83611867565b9250828210156123ff576123fe6123a7565b5b828203905092915050565b600061241582611867565b915061242083611867565b9250827fffffffffffffffffffffffffffffffffffffffffffffffffffffffffffffffff03821115612455576124546123a7565b5b828201905092915050565b7f496e697469616c697a61626c653a20636f6e7472616374206973206e6f74206960008201527f6e697469616c697a696e67000000000000000000000000000000000000000000602082015250565b60006124bc602b836117b7565b91506124c782612460565b604082019050919050565b600060208201905081810360008301526124eb816124af565b9050919050565b7f4552433732313a20617070726f766520746f2063616c6c657200000000000000600082015250565b60006125286019836117b7565b9150612533826124f2565b602082019050919050565b600060208201905081810360008301526125578161251b565b9050919050565b7f4552433732313a207472616e7366657220746f206e6f6e20455243373231526560008201527f63656976657220696d706c656d656e7465720000000000000000000000000000602082015250565b60006125ba6032836117b7565b91506125c58261255e565b604082019050919050565b600060208201905081810360008301526125e9816125ad565b9050919050565b60006125fb82611867565b91507fffffffffffffffffffffffffffffffffffffffffffffffffffffffffffffffff82141561262e5761262d6123a7565b5b600182019050919050565b7f4e487b7100000000000000000000000000000000000000000000000000000000600052601260045260246000fd5b600061267382611867565b915061267e83611867565b92508261268e5761268d612639565b5b828204905092915050565b60006126a482611867565b91506126af83611867565b9250826126bf576126be612639565b5b828206905092915050565b7f4e487b7100000000000000000000000000000000000000000000000000000000600052603260045260246000fd5b600081519050919050565b600082825260208201905092915050565b6000612720826126f9565b61272a8185612704565b935061273a8185602086016117c8565b612743816117fb565b840191505092915050565b600060808201905061276360008301876118fc565b61277060208301866118fc565b61277d6040830185611a12565b818103606083015261278f8184612715565b905095945050505050565b6000815190506127a98161171d565b92915050565b6000602082840312156127c5576127c46116e7565b5b60006127d38482850161279a565b9150509291505056fea2646970667358221220321322cbb42f8f05b9003c72d63d7a4e32e5313d8d02c5a9a2fc472bc5b5cce364736f6c634300080c0033",
  "linkReferences": {},
  "deployedLinkReferences": {}
}