{
  "_format": "hh-sol-artifact-1",
  "contractName": "AdminBox",
  "sourceName": "contracts/AdminBox.sol",
  "abi": [
    {
      "inputs": [],
      "stateMutability": "nonpayable",
      "type": "constructor"
    },
    {
      "anonymous": false,
      "inputs": [
        {
          "indexed": false,
          "internalType": "uint256",
          "name": "value",
          "type": "uint256"
        }
      ],
      "name": "ValueChanged",
      "type": "event"
    },
    {
      "inputs": [
        {
          "internalType": "address",
          "name": "admin",
          "type": "address"
        }
      ],
      "name": "initialize",
      "outputs": [],
      "stateMutability": "nonpayable",
      "type": "function"
    },
    {
      "inputs": [],
      "name": "retrieve",
      "outputs": [
        {
          "internalType": "uint256",
          "name": "",
          "type": "uint256"
        }
      ],
      "stateMutability": "view",
      "type": "function"
    },
    {
      "inputs": [
        {
          "internalType": "uint256",
          "name": "value",
          "type": "uint256"
        }
      ],
      "name": "store",
      "outputs": [],
      "stateMutability": "nonpayable",
      "type": "function"
    }
  ],
  "bytecode": "0x608060405234801561001057600080fd5b50600060019054906101000a900460ff166100395760008054906101000a900460ff1615610048565b6100476100fe60201b60201c565b5b610087576040517f08c379a000000000000000000000000000000000000000000000000000000000815260040161007e906101bf565b60405180910390fd5b60008060019054906101000a900460ff1615905080156100d7576001600060016101000a81548160ff02191690831515021790555060016000806101000a81548160ff0219169083151502179055505b80156100f85760008060016101000a81548160ff0219169083151502179055505b506101df565b60006101133061011960201b61029d1760201c565b15905090565b6000808273ffffffffffffffffffffffffffffffffffffffff163b119050919050565b600082825260208201905092915050565b7f496e697469616c697a61626c653a20636f6e747261637420697320616c72656160008201527f647920696e697469616c697a6564000000000000000000000000000000000000602082015250565b60006101a9602e8361013c565b91506101b48261014d565b604082019050919050565b600060208201905081810360008301526101d88161019c565b9050919050565b610533806101ee6000396000f3fe608060405234801561001057600080fd5b50600436106100415760003560e01c80632e64cec1146100465780636057361d14610064578063c4d66de814610080575b600080fd5b61004e61009c565b60405161005b91906102ea565b60405180910390f35b61007e60048036038101906100799190610336565b6100a6565b005b61009a600480360381019061009591906103c1565b610177565b005b6000600154905090565b600260009054906101000a900473ffffffffffffffffffffffffffffffffffffffff1673ffffffffffffffffffffffffffffffffffffffff163373ffffffffffffffffffffffffffffffffffffffff1614610136576040517f08c379a000000000000000000000000000000000000000000000000000000000815260040161012d9061044b565b60405180910390fd5b806001819055507f93fe6d397c74fdf1402a8b72e47b68512f0510d7b98a4bc4cbdf6ac7108b3c598160405161016c91906102ea565b60405180910390a150565b600060019054906101000a900460ff1661019f5760008054906101000a900460ff16156101a8565b6101a76102c0565b5b6101e7576040517f08c379a00000000000000000000000000000000000000000000000000000000081526004016101de906104dd565b60405180910390fd5b60008060019054906101000a900460ff161590508015610237576001600060016101000a81548160ff02191690831515021790555060016000806101000a81548160ff0219169083151502179055505b81600260006101000a81548173ffffffffffffffffffffffffffffffffffffffff021916908373ffffffffffffffffffffffffffffffffffffffff16021790555080156102995760008060016101000a81548160ff0219169083151502179055505b5050565b6000808273ffffffffffffffffffffffffffffffffffffffff163b119050919050565b60006102cb3061029d565b15905090565b6000819050919050565b6102e4816102d1565b82525050565b60006020820190506102ff60008301846102db565b92915050565b600080fd5b610313816102d1565b811461031e57600080fd5b50565b6000813590506103308161030a565b92915050565b60006020828403121561034c5761034b610305565b5b600061035a84828501610321565b91505092915050565b600073ffffffffffffffffffffffffffffffffffffffff82169050919050565b600061038e82610363565b9050919050565b61039e81610383565b81146103a957600080fd5b50565b6000813590506103bb81610395565b92915050565b6000602082840312156103d7576103d6610305565b5b60006103e5848285016103ac565b91505092915050565b600082825260208201905092915050565b7f41646d696e426f783a206e6f742061646d696e00000000000000000000000000600082015250565b60006104356013836103ee565b9150610440826103ff565b602082019050919050565b6000602082019050818103600083015261046481610428565b9050919050565b7f496e697469616c697a61626c653a20636f6e747261637420697320616c72656160008201527f647920696e697469616c697a6564000000000000000000000000000000000000602082015250565b60006104c7602e836103ee565b91506104d28261046b565b604082019050919050565b600060208201905081810360008301526104f6816104ba565b905091905056fea2646970667358221220c7313a8f9b18042410d2cb8d5b1aef6234615afd5c7a0b92732c193ad88cab3464736f6c634300080c0033",
  "linkReferences": {},
  "deployedLinkReferences": {}
}